:020000040800F2
:10000000002800207D0C0008210C0008270C0008A7
:100010002D0C0008330C0008390C0008000000000B
:100020000000000000000000000000003F0C00087D
:100030004B0C000800000000570C0008630C00087F
:10004000C50C0008C50C0008C50C0008C50C00084C
:10005000C50C0008C50C0008C50C0008C50C00083C
:10006000C50C0008C50C0008C50C0008C50C00082C
:10007000C50C0008C50C0008C50C0008C50C00081C
:10008000C50C0008C50C0008C50C0008C50C00080C
:10009000C50C0008C50C0008C50C0008C50C0008FC
:1000A000C50C0008C50C0008C50C0008C50C0008EC
:1000B000C50C0008C50C000800000000C50C0008B5
:1000C000C50C00080000000000000000C50C00087E
:1000D00000000000C50C0008C50C0008000000006E
:1000E000C50C0008C50C0008C50C00080000000085
:1000F0000000000000000000000000000000000000
:0C01000000000000000000005FF808F1A3
:10010C0010B5054C237833B9044B13B10448AFF345
:10011C0000800123237010BD0C00002000000000A3
:10012C00D01A000808B5034B1BB103490348AFF3C1
:10013C00008008BD0000000010000020D01A00084C
:10014C0080B582B000AF78607B68092B00F2948197
:10015C0001A252F823F000BF8D010008D90100085C
:10016C002502000871020008BD02000809030008FE
:10017C0055030008A1030008ED030008390400082A
:10018C0000220121D14801F07DF800220221CF4844
:10019C0001F078F800220421CC4801F073F8002219
:1001AC000821CA4801F06EF800221021C74801F05E
:1001BC0069F800224FF48071C44801F063F8012201
:1001CC004FF40071C14801F05DF87BE1012201217F
:1001DC00BE4801F057F800220221BC4801F052F849
:1001EC0000220421B94801F04DF801220821B7483A
:1001FC0001F048F801221021B44801F043F8012223
:10020C004FF48071B14801F03DF801224FF40071B8
:10021C00AE4801F037F855E100220121AB4801F05E
:10022C0031F800220221A94801F02CF80122042106
:10023C00A64801F027F800220821A44801F022F872
:10024C0000221021A14801F01DF801224FF4807109
:10025C009E4801F017F800224FF400719B4801F002
:10026C0011F82FE100220121984801F00BF800222F
:10027C000221964801F006F800220421934801F06F
:10028C0001F800220821914800F0FCFF0122102106
:10029C008E4800F0F7FF01224FF480718B4800F07C
:1002AC00F1FF00224FF40071884800F0EBFF09E1E8
:1002BC0001220121854800F0E5FF0022022183483C
:1002CC0000F0E0FF00220421804800F0DBFF012257
:1002DC0008217E4800F0D6FF012210217B4800F057
:1002EC00D1FF00224FF48071784800F0CBFF002240
:1002FC004FF40071754800F0C5FFE3E000220121C6
:10030C00724800F0BFFF01220221704800F0BAFFD2
:10031C00002204216D4800F0B5FF002208216B4833
:10032C0000F0B0FF01221021684800F0ABFF002262
:10033C004FF48071654800F0A5FF00224FF4007166
:10034C00624800F09FFFBDE0002201215F4800F0F1
:10035C0099FF012202215D4800F094FF0022042144
:10036C005A4800F08FFF00220821584800F08AFFFD
:10037C0000221021554800F085FF00224FF48071B7
:10038C00524800F07FFF00224FF400714F4800F0FC
:10039C0079FF97E0002201214C4800F073FF002206
:1003AC0002214A4800F06EFF00220421474800F069
:1003BC0069FF01220821454800F064FF0122102149
:1003CC00424800F05FFF01224FF480713F4800F07B
:1003DC0059FF01224FF400713C4800F053FF71E0CB
:1003EC0000220121394800F04DFF0022022137483C
:1003FC0000F048FF00220421344800F043FF0022A3
:10040C000821324800F03EFF002210212F4800F056
:10041C0039FF00224FF480712C4800F033FF00228A
:10042C004FF40071294800F02DFF4BE00022012110
:10043C00264800F027FF00220221244800F022FF6A
:10044C0000220421214800F01DFF002208211F4832
:10045C0000F018FF012210211C4800F013FF0022AD
:10046C004FF48071194800F00DFF00224FF4007119
:10047C00164800F007FF25E001220121134800F087
:10048C0001FF01220221114800F0FCFE012204218F
:10049C000E4800F0F7FE012208210C4800F0F2FE95
:1004AC0001221021094800F0EDFE01224FF4807169
:1004BC00064800F0E7FE01224FF40071034800F0FB
:1004CC00E1FE00BF00BF0837BD4680BD00080140FB
:1004DC0080B582B000AF78607B68092B00F2AA81EE
:1004EC0001A252F823F000BF1D0500086D0500089D
:1004FC00BD0500080D0600085D060008AD060008E5
:10050C00FD0600084D0700089D070008ED070008D0
:10051C0000220121C64800F0B5FE00220221C44889
:10052C0000F0B0FE00220421C14800F0ABFE002216
:10053C004FF48071BE4800F0A5FE00224FF400710C
:10054C00BB4800F09FFE00224FF48061B84800F0D9
:10055C0099FE01224FF40061B54800F093FE91E141
:10056C0001220121B24800F08DFE00220221B04888
:10057C0000F088FE00220421AD4800F083FE012229
:10058C004FF48071AA4800F07DFE01224FF40071F7
:10059C00A74800F077FE01224FF48061A44800F0D8
:1005AC0071FE01224FF40061A14800F06BFE69E17D
:1005BC00002201219E4800F065FE002202219C4889
:1005CC0000F060FE01220421994800F05BFE00223D
:1005DC004FF48071964800F055FE00224FF40071E4
:1005EC00934800F04FFE01224FF48061904800F0D8
:1005FC0049FE00224FF400618D4800F043FE41E1BA
:10060C00002201218A4800F03DFE00220221884888
:10061C0000F038FE00220421854800F033FE002251
:10062C004FF48071824800F02DFE01224FF40071CE
:10063C007F4800F027FE01224FF480617C4800F0D7
:10064C0021FE00224FF40061794800F01BFE19E1F5
:10065C0001220121764800F015FE00220221744887
:10066C0000F010FE00220421714800F00BFE012264
:10067C004FF480716E4800F005FE01224FF40071BA
:10068C006B4800F0FFFD00224FF48061684800F0D9
:10069C00F9FD00224FF40061654800F0F3FDF1E034
:1006AC0000220121624800F0EDFD01220221604888
:1006BC0000F0E8FD002204215D4800F0E3FD00227B
:1006CC004FF480715A4800F0DDFD01224FF40071A7
:1006DC00574800F0D7FD00224FF48061544800F0D9
:1006EC00D1FD00224FF40061514800F0CBFDC9E070
:1006FC00002201214E4800F0C5FD012202214C4888
:10070C0000F0C0FD00220421494800F0BBFD00228E
:10071C004FF48071464800F0B5FD00224FF4007193
:10072C00434800F0AFFD00224FF48061404800F0D8
:10073C00A9FD00224FF400613D4800F0A3FDA1E0AB
:10074C00002201213A4800F09DFD00220221384888
:10075C0000F098FD00220421354800F093FD0122A1
:10076C004FF48071324800F08DFD01224FF400717E
:10077C002F4800F087FD01224FF480612C4800F0D7
:10078C0081FD01224FF40061294800F07BFD79E0E6
:10079C0000220121264800F075FD00220221244888
:1007AC0000F070FD00220421214800F06BFD0022B6
:1007BC004FF480711E4800F065FD00224FF400716B
:1007CC001B4800F05FFD00224FF48061184800F0D8
:1007DC0059FD00224FF40061154800F053FD51E023
:1007EC0000220121124800F04DFD00220221104888
:1007FC0000F048FD002204210D4800F043FD0022CA
:10080C004FF480710A4800F03DFD01224FF4007155
:10081C00074800F037FD00224FF48061044800F0D7
:10082C0031FD00224FF40061014800F02BFD29E05E
:10083C00000C014001220121144800F023FD01228B
:10084C000221124800F01EFD012204210F4800F085
:10085C0019FD01224FF480710C4800F013FD0122A8
:10086C004FF40071094800F00DFD01224FF4806136
:10087C00064800F007FD01224FF40061034800F028
:10088C0001FD00BF00BF0837BD4680BD000C014014
:10089C0080B584B000AF00F011FA0023FB60052393
:1008AC00BB6003237B6000F0EBF800F025F9FB68DC
:1008BC00022B71D0FB68022B00F3A080FB68002B8D
:1008CC0003D0FB68012B33D098E0002220216A482A
:1008DC0000F0D8FC01224021674800F0D3FC012233
:1008EC008021654800F0CEFC01222021634800F0F5
:1008FC00C9FC01224021614800F0C4FC0022802187
:10090C005E4800F0BFFCB868FFF71AFC7868FFF788
:10091C00DFFDBB68013BBB607B68013B7B607B6898
:10092C00002B00F39F800123FB6002237B6099E086
:10093C0000222021504800F0A5FC012240214E4805
:10094C0000F0A0FC012280214B4800F09BFC01220E
:10095C0020214A4800F096FC00224021474800F034
:10096C0091FC01228021454800F08CFCB868FFF70F
:10097C00E7FB7868FFF7ACFDBB68013BBB607B68AD
:10098C00013B7B607B68002B6EDC0223FB60032346
:10099C00BB6005237B6067E001222021364800F014
:1009AC0071FC01224021344800F06CFC00228021B3
:1009BC00314800F067FC00222021304800F062FC36
:1009CC00012240212D4800F05DFC012280212B48A2
:1009DC0000F058FCB868FFF7B3FB7868FFF778FDB8
:1009EC00BB68013BBB607B68013B7B60BB68002B39
:1009FC003CDC0323FB600223BB6037E00122202197
:100A0C001D4800F03FFC002240211B4800F03AFC3E
:100A1C0001228021184800F035FC002220211748C3
:100A2C0000F030FC01224021144800F02BFC012284
:100A3C008021124800F026FCB868FFF781FB78682B
:100A4C00FFF746FDBB68013BBB607B68013B7B60ED
:100A5C00BB68002B0BDC0023FB600523BB6003236E
:100A6C007B6004E000BF02E000BF00E000BF4FF479
:100A7C007A7000F085F91AE700080140000C01407B
:100A8C0080B590B000AF07F118032822002118465A
:100A9C0001F010F83B1D00221A605A609A60DA606F
:100AAC001A610223BB610123BB621023FB6200238A
:100ABC007B6307F11803184600F0FCFB0346002B80
:100ACC0001D000F06FF80F237B600023BB60002384
:100ADC00FB6000233B6100237B613B1D002118461A
:100AEC0000F068FE0346002B01D000F05BF800BF5D
:100AFC004037BD4680BD000080B586B000AF07F121
:100B0C00080300221A605A609A60DA60224B9B69D3
:100B1C00214A43F0040393611F4B9B6903F00403C8
:100B2C007B607B681C4B9B691B4A43F008039361F9
:100B3C00194B9B6903F008033B603B68002240F2B1
:100B4C00FF31164800F09EFB002240F6E771144876
:100B5C0000F098FB40F2FF33BB600123FB600023E5
:100B6C003B6102237B6107F1080319460B4800F037
:100B7C000FFA40F6E773BB600123FB6000233B6177
:100B8C0002237B6107F108031946054800F000FABF
:100B9C0000BF1837BD4680BD001002400008014060
:100BAC00000C014080B400AF72B600BFFEE700003D
:100BBC0080B485B000AF154B9B69144A43F0010318
:100BCC009361124B9B6903F00103BB60BB680F4B35
:100BDC00DB690E4A43F08053D3610C4BDB6903F0A5
:100BEC0080537B607B680A4B5B68FB60FB6823F07F
:100BFC00E063FB60FB6843F08063FB60044AFB68C6
:100C0C00536000BF1437BD4680BC704700100240D3
:100C1C000000014080B400AFFEE780B400AFFEE7F7
:100C2C0080B400AFFEE780B400AFFEE780B400AF45
:100C3C00FEE780B400AF00BFBD4680BC704780B4F7
:100C4C0000AF00BFBD4680BC704780B400AF00BF92
:100C5C00BD4680BC704780B500AF00F075F800BF92
:100C6C0080BD80B400AF00BFBD4680BC70470000A3
:100C7C00FFF7F7FF0B480C490C4A002302E0D4584D
:100C8C00C4500433C4188C42F9D3094A094C0023CC
:100C9C0001E013600432A242FBD300F0E7FEFFF741
:100CAC00F7FD7047000000200C000020141B00080A
:100CBC000C0000202C000020FEE7000080B500AFE7
:100CCC00084B1B68074A43F010031360032000F025
:100CDC002BF90F2000F008F8FFF76AFF00231846E5
:100CEC0080BD00BF0020024080B582B000AF7860AC
:100CFC00124B1A68124B1B7819464FF47A73B3FBDC
:100D0C00F1F3B2FBF3F3184600F035F90346002B70
:100D1C0001D001230EE07B680F2B0AD800227968E2
:100D2C004FF0FF3000F00BF9064A7B68136000238C
:100D3C0000E0012318460837BD4680BD00000020A6
:100D4C00080000200400002080B400AF054B1B7885
:100D5C001A46054B1B681344034A136000BFBD467B
:100D6C0080BC7047080000202800002080B400AF31
:100D7C00024B1B681846BD4680BC704728000020FB
:100D8C0080B584B000AF7860FFF7F0FFB8607B6887
:100D9C00FB60FB68B3F1FF3F05D00A4B1B781A468A
:100DAC00FB681344FB6000BFFFF7E0FF0246BB6823
:100DBC00D31AFA689A42F7D800BF00BF1037BD4665
:100DCC0080BD00BF0800002080B485B000AF786003
:100DDC007B6803F00703FB600C4BDB68BB60BA68F5
:100DEC004FF6FF031340BB60FB681A02BB6813434A
:100DFC0043F0BF6343F40033BB60044ABB68D36069
:100E0C0000BF1437BD4680BC704700BF00ED00E04A
:100E1C0080B400AF044BDB681B0A03F007031846D1
:100E2C00BD4680BC704700BF00ED00E080B483B0CD
:100E3C0000AF03463960FB7197F90730002B0ADBD2
:100E4C003B68DAB20C4997F907301201D2B20B4465
:100E5C0083F800230AE03B68DAB20849FB7903F017
:100E6C000F03043B1201D2B20B441A7600BF0C37AD
:100E7C00BD4680BC704700BF00E100E000ED00E023
:100E8C0080B489B000AFF860B9607A60FB6803F099
:100E9C000703FB61FB69C3F10703042B28BF042381
:100EAC00BB61FB690433062B02D9FB69033B00E0F1
:100EBC0000237B614FF0FF32BB6902FA03F3DA4384
:100ECC00BB681A407B699A404FF0FF317B6901FA8D
:100EDC0003F3D9437B680B40134318462437BD46B4
:100EEC0080BC704780B582B000AF78607B68013BF6
:100EFC00B3F1807F01D301230FE00A4A7B68013BE9
:100F0C0053600F214FF0FF30FFF790FF054B00228D
:100F1C009A60044B07221A60002318460837BD4616
:100F2C0080BD00BF10E000E080B582B000AF7860FB
:100F3C007868FFF749FF00BF0837BD4680BD80B514
:100F4C0086B000AF0346B9607A60FB7300237B6107
:100F5C00FFF75EFF78617A68B9687869FFF790FFF0
:100F6C00024697F90F3011461846FFF75FFF00BF96
:100F7C001837BD4680BD80B582B000AF7860786808
:100F8C00FFF7B0FF034618460837BD4680BD00008A
:100F9C0080B48BB000AF7860396000237B62002393
:100FAC003B6248E101227B6A02FA03F3FB613B6876
:100FBC001B68FA691340BB61BA69FB699A4240F03D
:100FCC0037813B685B68A34A93425ED0A14A934247
:100FDC0075D8A14A934258D09F4A93426FD89F4AE2
:100FEC00934252D09D4A934269D89D4A93424CD029
:100FFC009B4A934263D89B4A934246D0994A934268
:10100C005DD8122B2AD8122B59D801A252F823F0F2
:10101C00971000087110000883100008C510000814
:10102C00CB100008CB100008CB100008CB10000828
:10103C00CB100008CB100008CB100008CB10000818
:10104C00CB100008CB100008CB100008CB10000808
:10105C00CB100008791000088D100008824A9342CA
:10106C0013D02CE03B68DB683B6229E03B68DB6813
:10107C0004333B6224E03B68DB6808333B621FE0CF
:10108C003B68DB680C333B621AE03B689B68002BC7
:10109C0002D104233B6213E03B689B68012B05D112
:1010AC0008233B627B68FA691A6109E008233B62FA
:1010BC007B68FA695A6103E000233B6200E000BFE1
:1010CC00BB69FF2B01D87B6801E07B6804337B6133
:1010DC00BB69FF2B02D87B6A9B0002E07B6A083B52
:1010EC009B003B617B691A680F213B6901FA03F392
:1010FC00DB431A40396A3B6901FA03F31A437B69F3
:10110C001A603B685B6803F08053002B00F0908002
:10111C00564B9B69554A43F001039361534B9B69B2
:10112C0003F00103BB60BB68514A7B6A9B08023326
:10113C0052F82330FB607B6A03F003039B000F2201
:10114C0002FA03F3DB43FA681340FB607B68494AFD
:10115C0093420DD07B68484A934207D07B68474A3C
:10116C00934201D1022304E0032302E0012300E0B7
:10117C0000237A6A02F0030292009340FA68134348
:10118C00FB603B497B6A9B080233FA6841F82320D9
:10119C003B685B6803F48013002B06D0384B9A68CD
:1011AC003749BB6913438B6006E0354B9A68BB69C2
:1011BC00DB43334913408B603B685B6803F40013DB
:1011CC00002B06D02E4BDA682D49BB691343CB603C
:1011DC0006E02B4BDA68BB69DB4329491340CB6033
:1011EC003B685B6803F40033002B06D0244B5A6831
:1011FC002349BB6913434B6006E0214B5A68BB691A
:10120C00DB431F4913404B603B685B6803F480333E
:10121C00002B06D01A4B1A681949BB6913430B6093
:10122C0006E0174B1A68BB69DB43154913400B608A
:10123C007B6A01337B623B681A687B6A22FA03F390
:10124C00002B7FF4AFAE00BF00BF2C37BD4680BC77
:10125C00704700BF00003210000031100000221057
:10126C0000002110000012100000111000100240AC
:10127C000000014000080140000C0140001001403A
:10128C000004014080B483B000AF78600B467B80D3
:10129C0013467B707B78002B03D07A887B681A61AD
:1012AC0003E07B881A047B681A6100BF0C37BD46CB
:1012BC0080BC704780B586B000AF78607B68002B2F
:1012CC0001D101236CE27B681B6803F00103002B46
:1012DC0000F08780924B5B6803F00C03042B0CD05E
:1012EC008F4B5B6803F00C03082B12D18C4B5B68A3
:1012FC0003F48033B3F5803F0BD1894B1B6803F4A7
:10130C000033002B6CD07B685B68002B68D1012309
:10131C0046E27B685B68B3F5803F06D1804B1B6867
:10132C007F4A43F4803313602EE07B685B68002BAC
:10133C000CD17B4B1B687A4A23F480331360784BB7
:10134C001B68774A23F4802313601DE07B685B687D
:10135C00B3F5A02F0CD1724B1B68714A43F4802358
:10136C0013606F4B1B686E4A43F4803313600BE0C1
:10137C006B4B1B686A4A23F480331360684B1B6801
:10138C00674A23F4802313607B685B68002B13D0BF
:10139C00FFF7ECFC386108E0FFF7E8FC02463B691C
:1013AC00D31A642B01D90323FAE15D4B1B6803F4B8
:1013BC000033002BF0D014E0FFF7D8FC386108E0C4
:1013CC00FFF7D4FC02463B69D31A642B01D90323E3
:1013DC00E6E1534B1B6803F40033002BF0D100E023
:1013EC0000BF7B681B6803F00203002B63D04C4BDF
:1013FC005B6803F00C03002B0BD0494B5B6803F0CC
:10140C000C03082B1CD1464B5B6803F48033002B78
:10141C0016D1434B1B6803F00203002B05D07B68ED
:10142C001B69012B01D00123BAE13D4B1B6823F052
:10143C00F8027B685B69DB00394913430B603AE0C7
:10144C007B681B69002B20D0364B01221A60FFF7FA
:10145C008DFC386108E0FFF789FC02463B69D31A22
:10146C00022B01D903239BE12D4B1B6803F00203D4
:10147C00002BF0D02A4B1B6823F0F8027B685B69C9
:10148C00DB00274913430B6015E0264B00221A6042
:10149C00FFF76CFC386108E0FFF768FC02463B691B
:1014AC00D31A022B01D903237AE11D4B1B6803F0DD
:1014BC000203002BF0D17B681B6803F00803002BA0
:1014CC003AD07B689B69002B19D0174B01221A600C
:1014DC00FFF74CFC386108E0FFF748FC02463B691B
:1014EC00D31A022B01D903235AE10D4B5B6A03F08B
:1014FC000203002BF0D0012000F09AFA1CE00A4BFA
:10150C0000221A60FFF732FC38610FE0FFF72EFC67
:10151C0002463B69D31A022B08D9032340E100BFD2
:10152C000010024000004242800442429E4B5B6A23
:10153C0003F00203002BE9D17B681B6803F0040362
:10154C00002B00F0A6800023FB75974BDB6903F0A2
:10155C008053002B0DD1944BDB69934A43F080539D
:10156C00D361914BDB6903F08053BB60BB680123F3
:10157C00FB758E4B1B6803F48073002B18D18B4BBF
:10158C001B688A4A43F480731360FFF7EFFB3861E2
:10159C0008E0FFF7EBFB02463B69D31A642B01D939
:1015AC000323FDE0814B1B6803F48073002BF0D008
:1015BC007B68DB68012B06D17B4B1B6A7A4A43F0B4
:1015CC00010313622DE07B68DB68002B0CD1764B9A
:1015DC001B6A754A23F001031362734B1B6A724A30
:1015EC0023F0040313621CE07B68DB68052B0CD131
:1015FC006D4B1B6A6C4A43F0040313626A4B1B6A03
:10160C00694A43F0010313620BE0674B1B6A664A9D
:10161C0023F001031362644B1B6A634A23F0040337
:10162C0013627B68DB68002B15D0FFF79FFB3861DA
:10163C000AE0FFF79BFB02463B69D31A41F2883262
:10164C00934201D90323ABE0574B1B6A03F002030F
:10165C00002BEED014E0FFF789FB38610AE0FFF7AE
:10166C0085FB02463B69D31A41F28832934201D979
:10167C00032395E04C4B1B6A03F00203002BEED1C5
:10168C00FB7D012B05D1484BDB69474A23F0805386
:10169C00D3617B68DB69002B00F08180424B5B6877
:1016AC0003F00C03082B61D07B68DB69022B46D15D
:1016BC003F4B00221A60FFF759FB386108E0FFF737
:1016CC0055FB02463B69D31A022B01D9032367E071
:1016DC00354B1B6803F00073002BF0D17B681B6A41
:1016EC00B3F5803F08D1304B5B6823F400327B6844
:1016FC009B682D4913434B602B4B5B6823F474128E
:10170C007B68196A7B685B6A0B43274913434B6000
:10171C00274B01221A60FFF729FB386108E0FFF71D
:10172C0025FB02463B69D31A022B01D9032337E070
:10173C001D4B1B6803F00073002BF0D02FE01C4BEB
:10174C0000221A60FFF712FB386108E0FFF70EFB6E
:10175C0002463B69D31A022B01D9032320E0124B1A
:10176C001B6803F00073002BF0D118E07B68DB6979
:10177C00012B01D1012313E00B4B5B68FB60FB6871
:10178C0003F480327B681B6A9A4206D1FB6803F42F
:10179C0070127B685B6A9A4201D0012300E000233F
:1017AC0018461837BD4680BD00100240007000403E
:1017BC006000424280B584B000AF786039607B68CD
:1017CC00002B01D10123D0E06A4B1B6803F0070307
:1017DC003A689A4210D9674B1B6823F00702654997
:1017EC003B6813430B60634B1B6803F007033A68B9
:1017FC009A4201D00123B8E07B681B6803F0020316
:10180C00002B20D07B681B6803F00403002B05D051
:10181C00594B5B68584A43F4E06353607B681B6820
:10182C0003F00803002B05D0534B5B68524A43F47A
:10183C0060535360504B5B6823F0F0027B689B68ED
:10184C004D4913434B607B681B6803F00103002B6D
:10185C0040D07B685B68012B07D1474B1B6803F4B6
:10186C000033002B15D101237FE07B685B68022BD2
:10187C0007D1414B1B6803F00073002B09D10123E6
:10188C0073E03D4B1B6803F00203002B01D10123D5
:10189C006BE0394B5B6823F003027B685B6836496D
:1018AC0013434B60FFF762FAF8600AE0FFF75EFA49
:1018BC000246FB68D31A41F28832934201D90323C2
:1018CC0053E02D4B5B6803F00C027B685B689B005C
:1018DC009A42EBD1274B1B6803F007033A689A42F4
:1018EC0010D2244B1B6823F0070222493B68134398
:1018FC000B60204B1B6803F007033A689A4201D037
:10190C00012332E07B681B6803F00403002B08D032
:10191C00194B5B6823F4E0627B68DB681649134360
:10192C004B607B681B6803F00803002B09D0124B3B
:10193C005B6823F460527B681B69DB000E49134320
:10194C004B6000F021F802460B4B5B681B0903F05F
:10195C000F030A49CB5C22FA03F3094A1360094BC3
:10196C001B681846FFF7C0F9002318461037BD4610
:10197C0080BD00BF0020024000100240E81A0008A1
:10198C00000000200400002080B487B000AF0023CA
:10199C00FB600023BB6000237B6100237B60002382
:1019AC003B611E4B5B68FB60FB6803F00C03042B74
:1019BC0002D0082B03D027E0194B3B6127E0FB68D2
:1019CC009B0C03F00F03174AD35C7B60FB6803F49A
:1019DC008033002B10D0114B5B685B0C03F00103C0
:1019EC00114AD35CBB607B680D4A02FB03F2BB68F7
:1019FC00B2FBF3F37B6104E07B680C4A02FB03F35C
:101A0C007B617B693B6102E0054B3B6100BF3B693D
:101A1C0018461C37BD4680BC704700BF0010024002
:101A2C0000127A00F81A0008081B000800093D0093
:101A3C0080B485B000AF78600A4B1B680A4AA2FBE1
:101A4C0003235B0A7A6802FB03F3FB6000BFFB68AD
:101A5C005A1EFA60002BF9D100BF00BF1437BD46E7
:101A6C0080BC704700000020D34D621070B500267A
:101A7C000C4D0D4C641BA410A64209D100F022F8A9
:101A8C0000260A4D0A4C641BA410A64205D170BD59
:101A9C0055F8043B98470136EEE755F8043B984758
:101AAC000136F2E70C1B00080C1B00080C1B00088D
:101ABC00101B000803460244934200D1704703F800
:101ACC00011BF9E7F8B500BFF8BC08BC9E4670478F
:0C1ADC00F8B500BFF8BC08BC9E4670477F
:101AE80000000000000000000102030406070809C6
:101AF80002030405060708090A0B0C0D0E0F101047
:041B080001020000D6
:041B0C00310100089B
:041B10000D010008BB
:0C1B14000024F40010000000010000009C
:0400000508000C7D66
:00000001FF
